{
  "contractName": "Token",
  "abi": [
    {
      "inputs": [
        {
          "internalType": "string",
          "name": "_name",
          "type": "string"
        },
        {
          "internalType": "string",
          "name": "_symbol",
          "type": "string"
        },
        {
          "internalType": "uint256",
          "name": "_totalSupply",
          "type": "uint256"
        }
      ],
      "stateMutability": "nonpayable",
      "type": "constructor"
    },
    {
      "anonymous": false,
      "inputs": [
        {
          "indexed": true,
          "internalType": "address",
          "name": "owner",
          "type": "address"
        },
        {
          "indexed": true,
          "internalType": "address",
          "name": "spender",
          "type": "address"
        },
        {
          "indexed": false,
          "internalType": "uint256",
          "name": "value",
          "type": "uint256"
        }
      ],
      "name": "Approval",
      "type": "event"
    },
    {
      "anonymous": false,
      "inputs": [],
      "name": "Pause",
      "type": "event"
    },
    {
      "anonymous": false,
      "inputs": [
        {
          "indexed": true,
          "internalType": "address",
          "name": "from",
          "type": "address"
        },
        {
          "indexed": true,
          "internalType": "address",
          "name": "to",
          "type": "address"
        },
        {
          "indexed": false,
          "internalType": "uint256",
          "name": "value",
          "type": "uint256"
        }
      ],
      "name": "Transfer",
      "type": "event"
    },
    {
      "anonymous": false,
      "inputs": [],
      "name": "Unpause",
      "type": "event"
    },
    {
      "inputs": [
        {
          "internalType": "address",
          "name": "",
          "type": "address"
        },
        {
          "internalType": "address",
          "name": "",
          "type": "address"
        }
      ],
      "name": "allowance",
      "outputs": [
        {
          "internalType": "uint256",
          "name": "",
          "type": "uint256"
        }
      ],
      "stateMutability": "view",
      "type": "function"
    },
    {
      "inputs": [
        {
          "internalType": "address",
          "name": "",
          "type": "address"
        }
      ],
      "name": "balanceOf",
      "outputs": [
        {
          "internalType": "uint256",
          "name": "",
          "type": "uint256"
        }
      ],
      "stateMutability": "view",
      "type": "function"
    },
    {
      "inputs": [],
      "name": "isPaused",
      "outputs": [
        {
          "internalType": "bool",
          "name": "",
          "type": "bool"
        }
      ],
      "stateMutability": "view",
      "type": "function"
    },
    {
      "inputs": [],
      "name": "name",
      "outputs": [
        {
          "internalType": "string",
          "name": "",
          "type": "string"
        }
      ],
      "stateMutability": "view",
      "type": "function"
    },
    {
      "inputs": [],
      "name": "owner",
      "outputs": [
        {
          "internalType": "address",
          "name": "",
          "type": "address"
        }
      ],
      "stateMutability": "view",
      "type": "function"
    },
    {
      "inputs": [],
      "name": "symbol",
      "outputs": [
        {
          "internalType": "string",
          "name": "",
          "type": "string"
        }
      ],
      "stateMutability": "view",
      "type": "function"
    },
    {
      "inputs": [],
      "name": "totalSupply",
      "outputs": [
        {
          "internalType": "uint256",
          "name": "",
          "type": "uint256"
        }
      ],
      "stateMutability": "view",
      "type": "function"
    },
    {
      "inputs": [],
      "name": "pause",
      "outputs": [],
      "stateMutability": "nonpayable",
      "type": "function"
    },
    {
      "inputs": [],
      "name": "unpause",
      "outputs": [],
      "stateMutability": "nonpayable",
      "type": "function"
    },
    {
      "inputs": [
        {
          "internalType": "address",
          "name": "_to",
          "type": "address"
        },
        {
          "internalType": "uint256",
          "name": "_value",
          "type": "uint256"
        }
      ],
      "name": "transfer",
      "outputs": [
        {
          "internalType": "bool",
          "name": "success",
          "type": "bool"
        }
      ],
      "stateMutability": "nonpayable",
      "type": "function"
    },
    {
      "inputs": [
        {
          "internalType": "address",
          "name": "_from",
          "type": "address"
        },
        {
          "internalType": "address",
          "name": "_to",
          "type": "address"
        },
        {
          "internalType": "uint256",
          "name": "_value",
          "type": "uint256"
        }
      ],
      "name": "transferFrom",
      "outputs": [
        {
          "internalType": "bool",
          "name": "success",
          "type": "bool"
        }
      ],
      "stateMutability": "nonpayable",
      "type": "function"
    },
    {
      "inputs": [
        {
          "internalType": "address",
          "name": "_spender",
          "type": "address"
        },
        {
          "internalType": "uint256",
          "name": "_value",
          "type": "uint256"
        }
      ],
      "name": "approve",
      "outputs": [
        {
          "internalType": "bool",
          "name": "success",
          "type": "bool"
        }
      ],
      "stateMutability": "nonpayable",
      "type": "function"
    },
    {
      "inputs": [
        {
          "internalType": "address[]",
          "name": "_recipients",
          "type": "address[]"
        },
        {
          "internalType": "uint256[]",
          "name": "_values",
          "type": "uint256[]"
        }
      ],
      "name": "dropTokens",
      "outputs": [],
      "stateMutability": "nonpayable",
      "type": "function"
    },
    {
      "inputs": [
        {
          "internalType": "address",
          "name": "_recipient",
          "type": "address"
        },
        {
          "internalType": "uint256",
          "name": "_value",
          "type": "uint256"
        }
      ],
      "name": "mint",
      "outputs": [],
      "stateMutability": "nonpayable",
      "type": "function"
    },
    {
      "inputs": [
        {
          "internalType": "uint256",
          "name": "_value",
          "type": "uint256"
        }
      ],
      "name": "burn",
      "outputs": [],
      "stateMutability": "nonpayable",
      "type": "function"
    },
    {
      "inputs": [
        {
          "internalType": "address",
          "name": "_from",
          "type": "address"
        },
        {
          "internalType": "uint256",
          "name": "_value",
          "type": "uint256"
        }
      ],
      "name": "burnFrom",
      "outputs": [],
      "stateMutability": "nonpayable",
      "type": "function"
    }
  ],
  "bytecode": "0x608060405234801562000010575f80fd5b50604051620027a9380380620027a98339818101604052810190620000369190620002c2565b825f908162000046919062000587565b50816001908162000058919062000587565b50806002819055508060035f3373ffffffffffffffffffffffffffffffffffffffff1673ffffffffffffffffffffffffffffffffffffffff1681526020019081526020015f208190555033600560016101000a81548173ffffffffffffffffffffffffffffffffffffffff021916908373ffffffffffffffffffffffffffffffffffffffff1602179055505f60055f6101000a81548160ff0219169083151502179055505050506200066b565b5f604051905090565b5f80fd5b5f80fd5b5f80fd5b5f80fd5b5f601f19601f8301169050919050565b7f4e487b71000000000000000000000000000000000000000000000000000000005f52604160045260245ffd5b62000166826200011e565b810181811067ffffffffffffffff821117156200018857620001876200012e565b5b80604052505050565b5f6200019c62000105565b9050620001aa82826200015b565b919050565b5f67ffffffffffffffff821115620001cc57620001cb6200012e565b5b620001d7826200011e565b9050602081019050919050565b5f5b8381101562000203578082015181840152602081019050620001e6565b5f8484015250505050565b5f620002246200021e84620001af565b62000191565b9050828152602081018484840111156200024357620002426200011a565b5b62000250848285620001e4565b509392505050565b5f82601f8301126200026f576200026e62000116565b5b8151620002818482602086016200020e565b91505092915050565b5f819050919050565b6200029e816200028a565b8114620002a9575f80fd5b50565b5f81519050620002bc8162000293565b92915050565b5f805f60608486031215620002dc57620002db6200010e565b5b5f84015167ffffffffffffffff811115620002fc57620002fb62000112565b5b6200030a8682870162000258565b935050602084015167ffffffffffffffff8111156200032e576200032d62000112565b5b6200033c8682870162000258565b92505060406200034f86828701620002ac565b9150509250925092565b5f81519050919050565b7f4e487b71000000000000000000000000000000000000000000000000000000005f52602260045260245ffd5b5f6002820490506001821680620003a857607f821691505b602082108103620003be57620003bd62000363565b5b50919050565b5f819050815f5260205f209050919050565b5f6020601f8301049050919050565b5f82821b905092915050565b5f60088302620004227fffffffffffffffffffffffffffffffffffffffffffffffffffffffffffffffff82620003e5565b6200042e8683620003e5565b95508019841693508086168417925050509392505050565b5f819050919050565b5f6200046f6200046962000463846200028a565b62000446565b6200028a565b9050919050565b5f819050919050565b6200048a836200044f565b620004a2620004998262000476565b848454620003f1565b825550505050565b5f90565b620004b8620004aa565b620004c58184846200047f565b505050565b5b81811015620004ec57620004e05f82620004ae565b600181019050620004cb565b5050565b601f8211156200053b576200050581620003c4565b6200051084620003d6565b8101602085101562000520578190505b620005386200052f85620003d6565b830182620004ca565b50505b505050565b5f82821c905092915050565b5f6200055d5f198460080262000540565b1980831691505092915050565b5f6200057783836200054c565b9150826002028217905092915050565b620005928262000359565b67ffffffffffffffff811115620005ae57620005ad6200012e565b5b620005ba825462000390565b620005c7828285620004f0565b5f60209050601f831160018114620005fd575f8415620005e8578287015190505b620005f485826200056a565b86555062000663565b601f1984166200060d86620003c4565b5f5b8281101562000636578489015182556001820191506020850194506020810190506200060f565b8683101562000656578489015162000652601f8916826200054c565b8355505b6001600288020188555050505b505050505050565b61213080620006795f395ff3fe608060405234801561000f575f80fd5b50600436106100fe575f3560e01c806370a082311161009557806395d89b411161006457806395d89b4114610270578063a9059cbb1461028e578063b187bd26146102be578063dd62ed3e146102dc576100fe565b806370a08231146101fc57806379cc67901461022c5780638456cb59146102485780638da5cb5b14610252576100fe565b80633f4ba83a116100d15780633f4ba83a1461019e57806340c10f19146101a857806342966c68146101c45780635422bdb5146101e0576100fe565b806306fdde0314610102578063095ea7b31461012057806318160ddd1461015057806323b872dd1461016e575b5f80fd5b61010a61030c565b6040516101179190611827565b60405180910390f35b61013a600480360381019061013591906118e5565b610397565b604051610147919061193d565b60405180910390f35b6101586104d3565b6040516101659190611965565b60405180910390f35b6101886004803603810190610183919061197e565b6104d9565b604051610195919061193d565b60405180910390f35b6101a6610876565b005b6101c260048036038101906101bd91906118e5565b61094d565b005b6101de60048036038101906101d991906119ce565b610b6e565b005b6101fa60048036038101906101f59190611bf9565b610d10565b005b61021660048036038101906102119190611c6f565b61108d565b6040516102239190611965565b60405180910390f35b610246600480360381019061024191906118e5565b6110a2565b005b61025061138e565b005b61025a611466565b6040516102679190611ca9565b60405180910390f35b61027861148c565b6040516102859190611827565b60405180910390f35b6102a860048036038101906102a391906118e5565b611518565b6040516102b5919061193d565b60405180910390f35b6102c661176b565b6040516102d3919061193d565b60405180910390f35b6102f660048036038101906102f19190611cc2565b61177d565b6040516103039190611965565b60405180910390f35b5f805461031890611d2d565b80601f016020809104026020016040519081016040528092919081815260200182805461034490611d2d565b801561038f5780601f106103665761010080835404028352916020019161038f565b820191905f5260205f20905b81548152906001019060200180831161037257829003601f168201915b505050505081565b5f60055f9054906101000a900460ff16156103e7576040517f08c379a00000000000000000000000000000000000000000000000000000000081526004016103de90611da7565b60405180910390fd5b8160045f3373ffffffffffffffffffffffffffffffffffffffff1673ffffffffffffffffffffffffffffffffffffffff1681526020019081526020015f205f8573ffffffffffffffffffffffffffffffffffffffff1673ffffffffffffffffffffffffffffffffffffffff1681526020019081526020015f20819055508273ffffffffffffffffffffffffffffffffffffffff163373ffffffffffffffffffffffffffffffffffffffff167f8c5be1e5ebec7d5bd14f71427d1e84f3dd0314c0f7b2291e5b200ac8c7c3b925846040516104c19190611965565b60405180910390a36001905092915050565b60025481565b5f60055f9054906101000a900460ff1615610529576040517f08c379a000000000000000000000000000000000000000000000000000000000815260040161052090611da7565b60405180910390fd5b8160035f8673ffffffffffffffffffffffffffffffffffffffff1673ffffffffffffffffffffffffffffffffffffffff1681526020019081526020015f205410156105a9576040517f08c379a00000000000000000000000000000000000000000000000000000000081526004016105a090611e0f565b60405180910390fd5b8160045f8673ffffffffffffffffffffffffffffffffffffffff1673ffffffffffffffffffffffffffffffffffffffff1681526020019081526020015f205f3373ffffffffffffffffffffffffffffffffffffffff1673ffffffffffffffffffffffffffffffffffffffff1681526020019081526020015f20541015610664576040517f08c379a000000000000000000000000000000000000000000000000000000000815260040161065b90611e77565b60405180910390fd5b5f73ffffffffffffffffffffffffffffffffffffffff168373ffffffffffffffffffffffffffffffffffffffff16036106d2576040517f08c379a00000000000000000000000000000000000000000000000000000000081526004016106c990611edf565b60405180910390fd5b8160035f8673ffffffffffffffffffffffffffffffffffffffff1673ffffffffffffffffffffffffffffffffffffffff1681526020019081526020015f205f82825461071e9190611f2a565b925050819055508160035f8573ffffffffffffffffffffffffffffffffffffffff1673ffffffffffffffffffffffffffffffffffffffff1681526020019081526020015f205f8282546107719190611f5d565b925050819055508160045f8673ffffffffffffffffffffffffffffffffffffffff1673ffffffffffffffffffffffffffffffffffffffff1681526020019081526020015f205f3373ffffffffffffffffffffffffffffffffffffffff1673ffffffffffffffffffffffffffffffffffffffff1681526020019081526020015f205f8282546107ff9190611f2a565b925050819055508273ffffffffffffffffffffffffffffffffffffffff168473ffffffffffffffffffffffffffffffffffffffff167fddf252ad1be2c89b69c2b068fc378daa952ba7f163c4a11628f55a4df523b3ef846040516108639190611965565b60405180910390a3600190509392505050565b600560019054906101000a900473ffffffffffffffffffffffffffffffffffffffff1673ffffffffffffffffffffffffffffffffffffffff163373ffffffffffffffffffffffffffffffffffffffff1614610906576040517f08c379a00000000000000000000000000000000000000000000000000000000081526004016108fd90612000565b60405180910390fd5b5f60055f6101000a81548160ff0219169083151502179055507f7805862f689e2f13df9f062ff482ad3ad112aca9e0847911ed832e158c525b3360405160405180910390a1565b60055f9054906101000a900460ff161561099c576040517f08c379a000000000000000000000000000000000000000000000000000000000815260040161099390611da7565b60405180910390fd5b600560019054906101000a900473ffffffffffffffffffffffffffffffffffffffff1673ffffffffffffffffffffffffffffffffffffffff163373ffffffffffffffffffffffffffffffffffffffff1614610a2c576040517f08c379a0000000000000000000000000000000000000000000000000000000008152600401610a2390612000565b60405180910390fd5b5f73ffffffffffffffffffffffffffffffffffffffff168273ffffffffffffffffffffffffffffffffffffffff1603610a9a576040517f08c379a0000000000000000000000000000000000000000000000000000000008152600401610a9190611edf565b60405180910390fd5b8060025f828254610aab9190611f5d565b925050819055508060035f8473ffffffffffffffffffffffffffffffffffffffff1673ffffffffffffffffffffffffffffffffffffffff1681526020019081526020015f205f828254610afe9190611f5d565b925050819055508173ffffffffffffffffffffffffffffffffffffffff165f73ffffffffffffffffffffffffffffffffffffffff167fddf252ad1be2c89b69c2b068fc378daa952ba7f163c4a11628f55a4df523b3ef83604051610b629190611965565b60405180910390a35050565b60055f9054906101000a900460ff1615610bbd576040517f08c379a0000000000000000000000000000000000000000000000000000000008152600401610bb490611da7565b60405180910390fd5b8060035f3373ffffffffffffffffffffffffffffffffffffffff1673ffffffffffffffffffffffffffffffffffffffff1681526020019081526020015f20541015610c3d576040517f08c379a0000000000000000000000000000000000000000000000000000000008152600401610c3490611e0f565b60405180910390fd5b8060035f3373ffffffffffffffffffffffffffffffffffffffff1673ffffffffffffffffffffffffffffffffffffffff1681526020019081526020015f205f828254610c899190611f2a565b925050819055508060025f828254610ca19190611f2a565b925050819055505f73ffffffffffffffffffffffffffffffffffffffff163373ffffffffffffffffffffffffffffffffffffffff167fddf252ad1be2c89b69c2b068fc378daa952ba7f163c4a11628f55a4df523b3ef83604051610d059190611965565b60405180910390a350565b60055f9054906101000a900460ff1615610d5f576040517f08c379a0000000000000000000000000000000000000000000000000000000008152600401610d5690611da7565b60405180910390fd5b600560019054906101000a900473ffffffffffffffffffffffffffffffffffffffff1673ffffffffffffffffffffffffffffffffffffffff163373ffffffffffffffffffffffffffffffffffffffff1614610def576040517f08c379a0000000000000000000000000000000000000000000000000000000008152600401610de690612000565b60405180910390fd5b8051825114610e33576040517f08c379a0000000000000000000000000000000000000000000000000000000008152600401610e2a90612068565b60405180910390fd5b5f5b8251811015611088575f838281518110610e5257610e51612086565b5b602002602001015190505f838381518110610e7057610e6f612086565b5b602002602001015190505f73ffffffffffffffffffffffffffffffffffffffff168273ffffffffffffffffffffffffffffffffffffffff1603610ee8576040517f08c379a0000000000000000000000000000000000000000000000000000000008152600401610edf90611edf565b60405180910390fd5b8060035f3373ffffffffffffffffffffffffffffffffffffffff1673ffffffffffffffffffffffffffffffffffffffff1681526020019081526020015f20541015610f68576040517f08c379a0000000000000000000000000000000000000000000000000000000008152600401610f5f90611e0f565b60405180910390fd5b8060035f3373ffffffffffffffffffffffffffffffffffffffff1673ffffffffffffffffffffffffffffffffffffffff1681526020019081526020015f205f828254610fb49190611f2a565b925050819055508060035f8473ffffffffffffffffffffffffffffffffffffffff1673ffffffffffffffffffffffffffffffffffffffff1681526020019081526020015f205f8282546110079190611f5d565b925050819055508173ffffffffffffffffffffffffffffffffffffffff163373ffffffffffffffffffffffffffffffffffffffff167fddf252ad1be2c89b69c2b068fc378daa952ba7f163c4a11628f55a4df523b3ef8360405161106b9190611965565b60405180910390a350508080611080906120b3565b915050610e35565b505050565b6003602052805f5260405f205f915090505481565b60055f9054906101000a900460ff16156110f1576040517f08c379a00000000000000000000000000000000000000000000000000000000081526004016110e890611da7565b60405180910390fd5b8060035f8473ffffffffffffffffffffffffffffffffffffffff1673ffffffffffffffffffffffffffffffffffffffff1681526020019081526020015f20541015611171576040517f08c379a000000000000000000000000000000000000000000000000000000000815260040161116890611e0f565b60405180910390fd5b8060045f8473ffffffffffffffffffffffffffffffffffffffff1673ffffffffffffffffffffffffffffffffffffffff1681526020019081526020015f205f3373ffffffffffffffffffffffffffffffffffffffff1673ffffffffffffffffffffffffffffffffffffffff1681526020019081526020015f2054101561122c576040517f08c379a000000000000000000000000000000000000000000000000000000000815260040161122390611e77565b60405180910390fd5b8060035f8473ffffffffffffffffffffffffffffffffffffffff1673ffffffffffffffffffffffffffffffffffffffff1681526020019081526020015f205f8282546112789190611f2a565b925050819055508060025f8282546112909190611f2a565b925050819055508060045f8473ffffffffffffffffffffffffffffffffffffffff1673ffffffffffffffffffffffffffffffffffffffff1681526020019081526020015f205f3373ffffffffffffffffffffffffffffffffffffffff1673ffffffffffffffffffffffffffffffffffffffff1681526020019081526020015f205f82825461131e9190611f2a565b925050819055505f73ffffffffffffffffffffffffffffffffffffffff168273ffffffffffffffffffffffffffffffffffffffff167fddf252ad1be2c89b69c2b068fc378daa952ba7f163c4a11628f55a4df523b3ef836040516113829190611965565b60405180910390a35050565b600560019054906101000a900473ffffffffffffffffffffffffffffffffffffffff1673ffffffffffffffffffffffffffffffffffffffff163373ffffffffffffffffffffffffffffffffffffffff161461141e576040517f08c379a000000000000000000000000000000000000000000000000000000000815260040161141590612000565b60405180910390fd5b600160055f6101000a81548160ff0219169083151502179055507f6985a02210a168e66602d3235cb6db0e70f92b3ba4d376a33c0f3d9434bff62560405160405180910390a1565b600560019054906101000a900473ffffffffffffffffffffffffffffffffffffffff1681565b6001805461149990611d2d565b80601f01602080910402602001604051908101604052809291908181526020018280546114c590611d2d565b80156115105780601f106114e757610100808354040283529160200191611510565b820191905f5260205f20905b8154815290600101906020018083116114f357829003601f168201915b505050505081565b5f60055f9054906101000a900460ff1615611568576040517f08c379a000000000000000000000000000000000000000000000000000000000815260040161155f90611da7565b60405180910390fd5b8160035f3373ffffffffffffffffffffffffffffffffffffffff1673ffffffffffffffffffffffffffffffffffffffff1681526020019081526020015f205410156115e8576040517f08c379a00000000000000000000000000000000000000000000000000000000081526004016115df90611e0f565b60405180910390fd5b5f73ffffffffffffffffffffffffffffffffffffffff168373ffffffffffffffffffffffffffffffffffffffff1603611656576040517f08c379a000000000000000000000000000000000000000000000000000000000815260040161164d90611edf565b60405180910390fd5b8160035f3373ffffffffffffffffffffffffffffffffffffffff1673ffffffffffffffffffffffffffffffffffffffff1681526020019081526020015f205f8282546116a29190611f2a565b925050819055508160035f8573ffffffffffffffffffffffffffffffffffffffff1673ffffffffffffffffffffffffffffffffffffffff1681526020019081526020015f205f8282546116f59190611f5d565b925050819055508273ffffffffffffffffffffffffffffffffffffffff163373ffffffffffffffffffffffffffffffffffffffff167fddf252ad1be2c89b69c2b068fc378daa952ba7f163c4a11628f55a4df523b3ef846040516117599190611965565b60405180910390a36001905092915050565b60055f9054906101000a900460ff1681565b6004602052815f5260405f20602052805f5260405f205f91509150505481565b5f81519050919050565b5f82825260208201905092915050565b5f5b838110156117d45780820151818401526020810190506117b9565b5f8484015250505050565b5f601f19601f8301169050919050565b5f6117f98261179d565b61180381856117a7565b93506118138185602086016117b7565b61181c816117df565b840191505092915050565b5f6020820190508181035f83015261183f81846117ef565b905092915050565b5f604051905090565b5f80fd5b5f80fd5b5f73ffffffffffffffffffffffffffffffffffffffff82169050919050565b5f61188182611858565b9050919050565b61189181611877565b811461189b575f80fd5b50565b5f813590506118ac81611888565b92915050565b5f819050919050565b6118c4816118b2565b81146118ce575f80fd5b50565b5f813590506118df816118bb565b92915050565b5f80604083850312156118fb576118fa611850565b5b5f6119088582860161189e565b9250506020611919858286016118d1565b9150509250929050565b5f8115159050919050565b61193781611923565b82525050565b5f6020820190506119505f83018461192e565b92915050565b61195f816118b2565b82525050565b5f6020820190506119785f830184611956565b92915050565b5f805f6060848603121561199557611994611850565b5b5f6119a28682870161189e565b93505060206119b38682870161189e565b92505060406119c4868287016118d1565b9150509250925092565b5f602082840312156119e3576119e2611850565b5b5f6119f0848285016118d1565b91505092915050565b5f80fd5b7f4e487b71000000000000000000000000000000000000000000000000000000005f52604160045260245ffd5b611a33826117df565b810181811067ffffffffffffffff82111715611a5257611a516119fd565b5b80604052505050565b5f611a64611847565b9050611a708282611a2a565b919050565b5f67ffffffffffffffff821115611a8f57611a8e6119fd565b5b602082029050602081019050919050565b5f80fd5b5f611ab6611ab184611a75565b611a5b565b90508083825260208201905060208402830185811115611ad957611ad8611aa0565b5b835b81811015611b025780611aee888261189e565b845260208401935050602081019050611adb565b5050509392505050565b5f82601f830112611b2057611b1f6119f9565b5b8135611b30848260208601611aa4565b91505092915050565b5f67ffffffffffffffff821115611b5357611b526119fd565b5b602082029050602081019050919050565b5f611b76611b7184611b39565b611a5b565b90508083825260208201905060208402830185811115611b9957611b98611aa0565b5b835b81811015611bc25780611bae88826118d1565b845260208401935050602081019050611b9b565b5050509392505050565b5f82601f830112611be057611bdf6119f9565b5b8135611bf0848260208601611b64565b91505092915050565b5f8060408385031215611c0f57611c0e611850565b5b5f83013567ffffffffffffffff811115611c2c57611c2b611854565b5b611c3885828601611b0c565b925050602083013567ffffffffffffffff811115611c5957611c58611854565b5b611c6585828601611bcc565b9150509250929050565b5f60208284031215611c8457611c83611850565b5b5f611c918482850161189e565b91505092915050565b611ca381611877565b82525050565b5f602082019050611cbc5f830184611c9a565b92915050565b5f8060408385031215611cd857611cd7611850565b5b5f611ce58582860161189e565b9250506020611cf68582860161189e565b9150509250929050565b7f4e487b71000000000000000000000000000000000000000000000000000000005f52602260045260245ffd5b5f6002820490506001821680611d4457607f821691505b602082108103611d5757611d56611d00565b5b50919050565b7f54686520636f6e747261637420697320706175736564000000000000000000005f82015250565b5f611d916016836117a7565b9150611d9c82611d5d565b602082019050919050565b5f6020820190508181035f830152611dbe81611d85565b9050919050565b7f496e73756666696369656e742062616c616e63650000000000000000000000005f82015250565b5f611df96014836117a7565b9150611e0482611dc5565b602082019050919050565b5f6020820190508181035f830152611e2681611ded565b9050919050565b7f496e73756666696369656e7420616c6c6f77616e6365000000000000000000005f82015250565b5f611e616016836117a7565b9150611e6c82611e2d565b602082019050919050565b5f6020820190508181035f830152611e8e81611e55565b9050919050565b7f496e76616c696420726563697069656e740000000000000000000000000000005f82015250565b5f611ec96011836117a7565b9150611ed482611e95565b602082019050919050565b5f6020820190508181035f830152611ef681611ebd565b9050919050565b7f4e487b71000000000000000000000000000000000000000000000000000000005f52601160045260245ffd5b5f611f34826118b2565b9150611f3f836118b2565b9250828203905081811115611f5757611f56611efd565b5b92915050565b5f611f67826118b2565b9150611f72836118b2565b9250828201905080821115611f8a57611f89611efd565b5b92915050565b7f4f6e6c792074686520636f6e7472616374206f776e65722063616e2063616c6c5f8201527f20746869732066756e6374696f6e000000000000000000000000000000000000602082015250565b5f611fea602e836117a7565b9150611ff582611f90565b604082019050919050565b5f6020820190508181035f83015261201781611fde565b9050919050565b7f496e76616c696420696e707574206c656e6774687300000000000000000000005f82015250565b5f6120526015836117a7565b915061205d8261201e565b602082019050919050565b5f6020820190508181035f83015261207f81612046565b9050919050565b7f4e487b71000000000000000000000000000000000000000000000000000000005f52603260045260245ffd5b5f6120bd826118b2565b91507fffffffffffffffffffffffffffffffffffffffffffffffffffffffffffffffff82036120ef576120ee611efd565b5b60018201905091905056fea26469706673582212202c12d57ac09987fc70aa2e268802281c92e54b9e1549b3cba7d6ae8f70c6c77964736f6c63430008150033",
  "immutableReferences": {},
  "source": "// SPDX-License-Identifier: MIT\npragma solidity ^0.8.0;\n\ncontract Token {\n    string public name; //  \n    string public symbol; //  \n    uint256 public totalSupply; //  \n    mapping(address => uint256) public balanceOf; //     \n    mapping(address => mapping(address => uint256)) public allowance; //           \n    bool public isPaused; //       \n    address public owner; //   \n    \n    event Transfer(address indexed from, address indexed to, uint256 value); //   \n    event Approval(address indexed owner, address indexed spender, uint256 value); //   \n    event Pause(); //    \n    event Unpause(); //    \n    \n    modifier onlyOwner() {\n        require(msg.sender == owner, \"Only the contract owner can call this function\"); //      \n        _;\n    }\n    \n    modifier whenNotPaused() {\n        require(!isPaused, \"The contract is paused\"); //        \n        _;\n    }\n    \n    constructor(string memory _name, string memory _symbol, uint256 _totalSupply) {\n        name = _name;\n        symbol = _symbol;\n        totalSupply = _totalSupply;\n        balanceOf[msg.sender] = _totalSupply;\n        owner = msg.sender;\n        isPaused = false;\n    }\n    \n    function pause() public onlyOwner {\n        isPaused = true;\n        emit Pause();\n    }\n    \n    function unpause() public onlyOwner {\n        isPaused = false;\n        emit Unpause();\n    }\n    \n    /*\n     * @dev     \n     * @param _to  \n     * @param _value   \n     * @return  \n     */\n    function transfer(address _to, uint256 _value) public whenNotPaused returns (bool success) {\n        require(balanceOf[msg.sender] >= _value, \"Insufficient balance\"); //       \n        require(_to != address(0), \"Invalid recipient\"); //    \n        \n        balanceOf[msg.sender] -= _value;\n        balanceOf[_to] += _value;\n        \n        emit Transfer(msg.sender, _to, _value);\n        \n        return true;\n    }\n    \n    /*\n     * @dev        \n     * @param _from  \n     * @param _to  \n     * @param _value   \n     * @return  \n     */\n    function transferFrom(address _from, address _to, uint256 _value) public whenNotPaused returns (bool success) {\n        require(balanceOf[_from] >= _value, \"Insufficient balance\"); //       \n        require(allowance[_from][msg.sender] >= _value, \"Insufficient allowance\"); //        \n        require(_to != address(0), \"Invalid recipient\"); //    \n        \n        balanceOf[_from] -= _value;\n        balanceOf[_to] += _value;\n        allowance[_from][msg.sender] -= _value;\n        \n        emit Transfer(_from, _to, _value);\n        \n        return true;\n    }\n    \n    /*\n     * @dev       \n     * @param _spender   \n     * @param _value \n     * @return  \n     */\n    function approve(address _spender, uint256 _value) public whenNotPaused returns (bool success) {\n        allowance[msg.sender][_spender] = _value;\n        \n        emit Approval(msg.sender, _spender, _value);\n        \n        return true;\n    }\n    \n    /*\n     * @dev       ()\n     * @param _recipients    \n     * @param _values    \n     */\n    function dropTokens(address[] memory _recipients, uint256[] memory _values) public whenNotPaused onlyOwner {\n        require(_recipients.length == _values.length, \"Invalid input lengths\"); //     \n        \n        for (uint256 i = 0; i < _recipients.length; i++) {\n            address recipient = _recipients[i];\n            uint256 value = _values[i];\n            \n            require(recipient != address(0), \"Invalid recipient\"); //    \n            require(balanceOf[msg.sender] >= value, \"Insufficient balance\"); //       \n            \n            balanceOf[msg.sender] -= value;\n            balanceOf[recipient] += value;\n            \n            emit Transfer(msg.sender, recipient, value);\n        }\n    }\n\n    /*\n     * @dev    \n     * @param _recipient    \n     * @param _value   \n     */\n    function mint(address _recipient, uint256 _value) public whenNotPaused onlyOwner {\n        require(_recipient != address(0), \"Invalid recipient\"); //    \n        \n        totalSupply += _value;\n        balanceOf[_recipient] += _value;\n        \n        emit Transfer(address(0), _recipient, _value);\n    }\n    \n    /*\n     * @dev   \n     * @param _value   \n     */\n    function burn(uint256 _value) public whenNotPaused {\n        require(balanceOf[msg.sender] >= _value, \"Insufficient balance\"); //       \n        \n        balanceOf[msg.sender] -= _value;\n        totalSupply -= _value;\n        \n        emit Transfer(msg.sender, address(0), _value);\n    }\n    \n    /*\n     * @dev     \n     * @param _from  \n     * @param _value   \n     */\n    function burnFrom(address _from, uint256 _value) public whenNotPaused {\n        require(balanceOf[_from] >= _value, \"Insufficient balance\"); //       \n        require(allowance[_from][msg.sender] >= _value, \"Insufficient allowance\"); //        \n        \n        balanceOf[_from] -= _value;\n        totalSupply -= _value;\n        allowance[_from][msg.sender] -= _value;\n        \n        emit Transfer(_from, address(0), _value);\n    }\n}",
  "sourcePath": "C:\\Users\\SABU\\Desktop\\NFTdevelop\\HighRunToken\\contracts\\HighRun.sol",
  "compiler": {
    "name": "solc",
    "version": "0.8.21+commit.d9974bed.Emscripten.clang"
  },
  "schemaVersion": "3.4.16",
  "updatedAt": "2023-11-16T20:34:56.348Z",
  "devdoc": {
    "kind": "dev",
    "methods": {},
    "version": 1
  },
  "userdoc": {
    "kind": "user",
    "methods": {},
    "version": 1
  }
}